{
  "contractName": "Nfkitties",
  "abi": [
    {
      "inputs": [
        {
          "internalType": "address",
          "name": "marketplaceAddress",
          "type": "address"
        }
      ],
      "stateMutability": "nonpayable",
      "type": "constructor"
    },
    {
      "anonymous": false,
      "inputs": [
        {
          "indexed": true,
          "internalType": "address",
          "name": "owner",
          "type": "address"
        },
        {
          "indexed": true,
          "internalType": "address",
          "name": "approved",
          "type": "address"
        },
        {
          "indexed": true,
          "internalType": "uint256",
          "name": "tokenId",
          "type": "uint256"
        }
      ],
      "name": "Approval",
      "type": "event"
    },
    {
      "anonymous": false,
      "inputs": [
        {
          "indexed": true,
          "internalType": "address",
          "name": "owner",
          "type": "address"
        },
        {
          "indexed": true,
          "internalType": "address",
          "name": "operator",
          "type": "address"
        },
        {
          "indexed": false,
          "internalType": "bool",
          "name": "approved",
          "type": "bool"
        }
      ],
      "name": "ApprovalForAll",
      "type": "event"
    },
    {
      "anonymous": false,
      "inputs": [
        {
          "indexed": true,
          "internalType": "address",
          "name": "from",
          "type": "address"
        },
        {
          "indexed": true,
          "internalType": "address",
          "name": "to",
          "type": "address"
        },
        {
          "indexed": true,
          "internalType": "uint256",
          "name": "tokenId",
          "type": "uint256"
        }
      ],
      "name": "Transfer",
      "type": "event"
    },
    {
      "inputs": [
        {
          "internalType": "address",
          "name": "to",
          "type": "address"
        },
        {
          "internalType": "uint256",
          "name": "tokenId",
          "type": "uint256"
        }
      ],
      "name": "approve",
      "outputs": [],
      "stateMutability": "nonpayable",
      "type": "function"
    },
    {
      "inputs": [
        {
          "internalType": "address",
          "name": "owner",
          "type": "address"
        }
      ],
      "name": "balanceOf",
      "outputs": [
        {
          "internalType": "uint256",
          "name": "",
          "type": "uint256"
        }
      ],
      "stateMutability": "view",
      "type": "function"
    },
    {
      "inputs": [
        {
          "internalType": "uint256",
          "name": "tokenId",
          "type": "uint256"
        }
      ],
      "name": "getApproved",
      "outputs": [
        {
          "internalType": "address",
          "name": "",
          "type": "address"
        }
      ],
      "stateMutability": "view",
      "type": "function"
    },
    {
      "inputs": [
        {
          "internalType": "address",
          "name": "owner",
          "type": "address"
        },
        {
          "internalType": "address",
          "name": "operator",
          "type": "address"
        }
      ],
      "name": "isApprovedForAll",
      "outputs": [
        {
          "internalType": "bool",
          "name": "",
          "type": "bool"
        }
      ],
      "stateMutability": "view",
      "type": "function"
    },
    {
      "inputs": [],
      "name": "maxSupply",
      "outputs": [
        {
          "internalType": "uint256",
          "name": "",
          "type": "uint256"
        }
      ],
      "stateMutability": "view",
      "type": "function"
    },
    {
      "inputs": [],
      "name": "name",
      "outputs": [
        {
          "internalType": "string",
          "name": "",
          "type": "string"
        }
      ],
      "stateMutability": "view",
      "type": "function"
    },
    {
      "inputs": [
        {
          "internalType": "uint256",
          "name": "tokenId",
          "type": "uint256"
        }
      ],
      "name": "ownerOf",
      "outputs": [
        {
          "internalType": "address",
          "name": "",
          "type": "address"
        }
      ],
      "stateMutability": "view",
      "type": "function"
    },
    {
      "inputs": [
        {
          "internalType": "address",
          "name": "from",
          "type": "address"
        },
        {
          "internalType": "address",
          "name": "to",
          "type": "address"
        },
        {
          "internalType": "uint256",
          "name": "tokenId",
          "type": "uint256"
        }
      ],
      "name": "safeTransferFrom",
      "outputs": [],
      "stateMutability": "nonpayable",
      "type": "function"
    },
    {
      "inputs": [
        {
          "internalType": "address",
          "name": "from",
          "type": "address"
        },
        {
          "internalType": "address",
          "name": "to",
          "type": "address"
        },
        {
          "internalType": "uint256",
          "name": "tokenId",
          "type": "uint256"
        },
        {
          "internalType": "bytes",
          "name": "_data",
          "type": "bytes"
        }
      ],
      "name": "safeTransferFrom",
      "outputs": [],
      "stateMutability": "nonpayable",
      "type": "function"
    },
    {
      "inputs": [
        {
          "internalType": "address",
          "name": "operator",
          "type": "address"
        },
        {
          "internalType": "bool",
          "name": "approved",
          "type": "bool"
        }
      ],
      "name": "setApprovalForAll",
      "outputs": [],
      "stateMutability": "nonpayable",
      "type": "function"
    },
    {
      "inputs": [
        {
          "internalType": "bytes4",
          "name": "interfaceId",
          "type": "bytes4"
        }
      ],
      "name": "supportsInterface",
      "outputs": [
        {
          "internalType": "bool",
          "name": "",
          "type": "bool"
        }
      ],
      "stateMutability": "view",
      "type": "function"
    },
    {
      "inputs": [],
      "name": "symbol",
      "outputs": [
        {
          "internalType": "string",
          "name": "",
          "type": "string"
        }
      ],
      "stateMutability": "view",
      "type": "function"
    },
    {
      "inputs": [
        {
          "internalType": "uint256",
          "name": "tokenId",
          "type": "uint256"
        }
      ],
      "name": "tokenURI",
      "outputs": [
        {
          "internalType": "string",
          "name": "",
          "type": "string"
        }
      ],
      "stateMutability": "view",
      "type": "function"
    },
    {
      "inputs": [
        {
          "internalType": "address",
          "name": "from",
          "type": "address"
        },
        {
          "internalType": "address",
          "name": "to",
          "type": "address"
        },
        {
          "internalType": "uint256",
          "name": "tokenId",
          "type": "uint256"
        }
      ],
      "name": "transferFrom",
      "outputs": [],
      "stateMutability": "nonpayable",
      "type": "function"
    },
    {
      "inputs": [
        {
          "internalType": "string",
          "name": "tokenURI",
          "type": "string"
        }
      ],
      "name": "mintToken",
      "outputs": [
        {
          "internalType": "uint256",
          "name": "",
          "type": "uint256"
        }
      ],
      "stateMutability": "nonpayable",
      "type": "function"
    }
  ],
  "bytecode": "0x60806040526019600a553480156200001657600080fd5b50604051620033b9380380620033b983398181016040528101906200003c919062000180565b6040518060400160405280600981526020017f4e464b69747469657300000000000000000000000000000000000000000000008152506040518060400160405280600381526020017f4e464b00000000000000000000000000000000000000000000000000000000008152508160009081620000b991906200042c565b508060019081620000cb91906200042c565b50505080600960006101000a81548173ffffffffffffffffffffffffffffffffffffffff021916908373ffffffffffffffffffffffffffffffffffffffff1602179055505062000513565b600080fd5b600073ffffffffffffffffffffffffffffffffffffffff82169050919050565b600062000148826200011b565b9050919050565b6200015a816200013b565b81146200016657600080fd5b50565b6000815190506200017a816200014f565b92915050565b60006020828403121562000199576200019862000116565b5b6000620001a98482850162000169565b91505092915050565b600081519050919050565b7f4e487b7100000000000000000000000000000000000000000000000000000000600052604160045260246000fd5b7f4e487b7100000000000000000000000000000000000000000000000000000000600052602260045260246000fd5b600060028204905060018216806200023457607f821691505b6020821081036200024a5762000249620001ec565b5b50919050565b60008190508160005260206000209050919050565b60006020601f8301049050919050565b600082821b905092915050565b600060088302620002b47fffffffffffffffffffffffffffffffffffffffffffffffffffffffffffffffff8262000275565b620002c0868362000275565b95508019841693508086168417925050509392505050565b6000819050919050565b6000819050919050565b60006200030d620003076200030184620002d8565b620002e2565b620002d8565b9050919050565b6000819050919050565b6200032983620002ec565b62000341620003388262000314565b84845462000282565b825550505050565b600090565b6200035862000349565b620003658184846200031e565b505050565b5b818110156200038d57620003816000826200034e565b6001810190506200036b565b5050565b601f821115620003dc57620003a68162000250565b620003b18462000265565b81016020851015620003c1578190505b620003d9620003d08562000265565b8301826200036a565b50505b505050565b600082821c905092915050565b60006200040160001984600802620003e1565b1980831691505092915050565b60006200041c8383620003ee565b9150826002028217905092915050565b6200043782620001b2565b67ffffffffffffffff811115620004535762000452620001bd565b5b6200045f82546200021b565b6200046c82828562000391565b600060209050601f831160018114620004a457600084156200048f578287015190505b6200049b85826200040e565b8655506200050b565b601f198416620004b48662000250565b60005b82811015620004de57848901518255600182019150602085019450602081019050620004b7565b86831015620004fe5784890151620004fa601f891682620003ee565b8355505b6001600288020188555050505b505050505050565b612e9680620005236000396000f3fe608060405234801561001057600080fd5b50600436106100f55760003560e01c80636352211e11610097578063b88d4fde11610066578063b88d4fde14610296578063c87b56dd146102b2578063d5abeb01146102e2578063e985e9c514610300576100f5565b80636352211e146101fc57806370a082311461022c57806395d89b411461025c578063a22cb4651461027a576100f5565b8063095ea7b3116100d3578063095ea7b31461017857806323b872dd1461019457806333eba49a146101b057806342842e0e146101e0576100f5565b806301ffc9a7146100fa57806306fdde031461012a578063081812fc14610148575b600080fd5b610114600480360381019061010f9190611923565b610330565b604051610121919061196b565b60405180910390f35b610132610412565b60405161013f9190611a1f565b60405180910390f35b610162600480360381019061015d9190611a77565b6104a4565b60405161016f9190611ae5565b60405180910390f35b610192600480360381019061018d9190611b2c565b610529565b005b6101ae60048036038101906101a99190611b6c565b610640565b005b6101ca60048036038101906101c59190611cf4565b6106a0565b6040516101d79190611d4c565b60405180910390f35b6101fa60048036038101906101f59190611b6c565b61075b565b005b61021660048036038101906102119190611a77565b61077b565b6040516102239190611ae5565b60405180910390f35b61024660048036038101906102419190611d67565b61082c565b6040516102539190611d4c565b60405180910390f35b6102646108e3565b6040516102719190611a1f565b60405180910390f35b610294600480360381019061028f9190611dc0565b610975565b005b6102b060048036038101906102ab9190611ea1565b61098b565b005b6102cc60048036038101906102c79190611a77565b6109ed565b6040516102d99190611a1f565b60405180910390f35b6102ea610b3e565b6040516102f79190611d4c565b60405180910390f35b61031a60048036038101906103159190611f24565b610b44565b604051610327919061196b565b60405180910390f35b60007f80ac58cd000000000000000000000000000000000000000000000000000000007bffffffffffffffffffffffffffffffffffffffffffffffffffffffff1916827bffffffffffffffffffffffffffffffffffffffffffffffffffffffff191614806103fb57507f5b5e139f000000000000000000000000000000000000000000000000000000007bffffffffffffffffffffffffffffffffffffffffffffffffffffffff1916827bffffffffffffffffffffffffffffffffffffffffffffffffffffffff1916145b8061040b575061040a82610bd8565b5b9050919050565b60606000805461042190611f93565b80601f016020809104026020016040519081016040528092919081815260200182805461044d90611f93565b801561049a5780601f1061046f5761010080835404028352916020019161049a565b820191906000526020600020905b81548152906001019060200180831161047d57829003601f168201915b5050505050905090565b60006104af82610c42565b6104ee576040517f08c379a00000000000000000000000000000000000000000000000000000000081526004016104e590612036565b60405180910390fd5b6004600083815260200190815260200160002060009054906101000a900473ffffffffffffffffffffffffffffffffffffffff169050919050565b60006105348261077b565b90508073ffffffffffffffffffffffffffffffffffffffff168373ffffffffffffffffffffffffffffffffffffffff16036105a4576040517f08c379a000000000000000000000000000000000000000000000000000000000815260040161059b906120c8565b60405180910390fd5b8073ffffffffffffffffffffffffffffffffffffffff166105c3610cae565b73ffffffffffffffffffffffffffffffffffffffff1614806105f257506105f1816105ec610cae565b610b44565b5b610631576040517f08c379a00000000000000000000000000000000000000000000000000000000081526004016106289061215a565b60405180910390fd5b61063b8383610cb6565b505050565b61065161064b610cae565b82610d6f565b610690576040517f08c379a0000000000000000000000000000000000000000000000000000000008152600401610687906121ec565b60405180910390fd5b61069b838383610e4d565b505050565b6000600a546106af60086110b3565b106106ef576040517f08c379a00000000000000000000000000000000000000000000000000000000081526004016106e690612258565b60405180910390fd5b6106f960076110c1565b61070360086110c1565b600061070f60076110b3565b905061071b33826110d7565b61072581846112b0565b610752600960009054906101000a900473ffffffffffffffffffffffffffffffffffffffff166001610975565b80915050919050565b6107768383836040518060200160405280600081525061098b565b505050565b6000806002600084815260200190815260200160002060009054906101000a900473ffffffffffffffffffffffffffffffffffffffff169050600073ffffffffffffffffffffffffffffffffffffffff168173ffffffffffffffffffffffffffffffffffffffff1603610823576040517f08c379a000000000000000000000000000000000000000000000000000000000815260040161081a906122ea565b60405180910390fd5b80915050919050565b60008073ffffffffffffffffffffffffffffffffffffffff168273ffffffffffffffffffffffffffffffffffffffff160361089c576040517f08c379a00000000000000000000000000000000000000000000000000000000081526004016108939061237c565b60405180910390fd5b600360008373ffffffffffffffffffffffffffffffffffffffff1673ffffffffffffffffffffffffffffffffffffffff168152602001908152602001600020549050919050565b6060600180546108f290611f93565b80601f016020809104026020016040519081016040528092919081815260200182805461091e90611f93565b801561096b5780601f106109405761010080835404028352916020019161096b565b820191906000526020600020905b81548152906001019060200180831161094e57829003601f168201915b5050505050905090565b610987610980610cae565b838361131d565b5050565b61099c610996610cae565b83610d6f565b6109db576040517f08c379a00000000000000000000000000000000000000000000000000000000081526004016109d2906121ec565b60405180910390fd5b6109e784848484611489565b50505050565b60606109f882610c42565b610a37576040517f08c379a0000000000000000000000000000000000000000000000000000000008152600401610a2e9061240e565b60405180910390fd5b6000600660008481526020019081526020016000208054610a5790611f93565b80601f0160208091040260200160405190810160405280929190818152602001828054610a8390611f93565b8015610ad05780601f10610aa557610100808354040283529160200191610ad0565b820191906000526020600020905b815481529060010190602001808311610ab357829003601f168201915b505050505090506000610ae16114e5565b90506000815103610af6578192505050610b39565b600082511115610b2b578082604051602001610b1392919061246a565b60405160208183030381529060405292505050610b39565b610b34846114fc565b925050505b919050565b600a5481565b6000600560008473ffffffffffffffffffffffffffffffffffffffff1673ffffffffffffffffffffffffffffffffffffffff16815260200190815260200160002060008373ffffffffffffffffffffffffffffffffffffffff1673ffffffffffffffffffffffffffffffffffffffff16815260200190815260200160002060009054906101000a900460ff16905092915050565b60007f01ffc9a7000000000000000000000000000000000000000000000000000000007bffffffffffffffffffffffffffffffffffffffffffffffffffffffff1916827bffffffffffffffffffffffffffffffffffffffffffffffffffffffff1916149050919050565b60008073ffffffffffffffffffffffffffffffffffffffff166002600084815260200190815260200160002060009054906101000a900473ffffffffffffffffffffffffffffffffffffffff1673ffffffffffffffffffffffffffffffffffffffff1614159050919050565b600033905090565b816004600083815260200190815260200160002060006101000a81548173ffffffffffffffffffffffffffffffffffffffff021916908373ffffffffffffffffffffffffffffffffffffffff160217905550808273ffffffffffffffffffffffffffffffffffffffff16610d298361077b565b73ffffffffffffffffffffffffffffffffffffffff167f8c5be1e5ebec7d5bd14f71427d1e84f3dd0314c0f7b2291e5b200ac8c7c3b92560405160405180910390a45050565b6000610d7a82610c42565b610db9576040517f08c379a0000000000000000000000000000000000000000000000000000000008152600401610db090612500565b60405180910390fd5b6000610dc48361077b565b90508073ffffffffffffffffffffffffffffffffffffffff168473ffffffffffffffffffffffffffffffffffffffff161480610e3357508373ffffffffffffffffffffffffffffffffffffffff16610e1b846104a4565b73ffffffffffffffffffffffffffffffffffffffff16145b80610e445750610e438185610b44565b5b91505092915050565b8273ffffffffffffffffffffffffffffffffffffffff16610e6d8261077b565b73ffffffffffffffffffffffffffffffffffffffff1614610ec3576040517f08c379a0000000000000000000000000000000000000000000000000000000008152600401610eba90612592565b60405180910390fd5b600073ffffffffffffffffffffffffffffffffffffffff168273ffffffffffffffffffffffffffffffffffffffff1603610f32576040517f08c379a0000000000000000000000000000000000000000000000000000000008152600401610f2990612624565b60405180910390fd5b610f3d8383836115a3565b610f48600082610cb6565b6001600360008573ffffffffffffffffffffffffffffffffffffffff1673ffffffffffffffffffffffffffffffffffffffff1681526020019081526020016000206000828254610f989190612673565b925050819055506001600360008473ffffffffffffffffffffffffffffffffffffffff1673ffffffffffffffffffffffffffffffffffffffff1681526020019081526020016000206000828254610fef91906126a7565b92505081905550816002600083815260200190815260200160002060006101000a81548173ffffffffffffffffffffffffffffffffffffffff021916908373ffffffffffffffffffffffffffffffffffffffff160217905550808273ffffffffffffffffffffffffffffffffffffffff168473ffffffffffffffffffffffffffffffffffffffff167fddf252ad1be2c89b69c2b068fc378daa952ba7f163c4a11628f55a4df523b3ef60405160405180910390a46110ae8383836115a8565b505050565b600081600001549050919050565b6001816000016000828254019250508190555050565b600073ffffffffffffffffffffffffffffffffffffffff168273ffffffffffffffffffffffffffffffffffffffff1603611146576040517f08c379a000000000000000000000000000000000000000000000000000000000815260040161113d90612749565b60405180910390fd5b61114f81610c42565b1561118f576040517f08c379a0000000000000000000000000000000000000000000000000000000008152600401611186906127b5565b60405180910390fd5b61119b600083836115a3565b6001600360008473ffffffffffffffffffffffffffffffffffffffff1673ffffffffffffffffffffffffffffffffffffffff16815260200190815260200160002060008282546111eb91906126a7565b92505081905550816002600083815260200190815260200160002060006101000a81548173ffffffffffffffffffffffffffffffffffffffff021916908373ffffffffffffffffffffffffffffffffffffffff160217905550808273ffffffffffffffffffffffffffffffffffffffff16600073ffffffffffffffffffffffffffffffffffffffff167fddf252ad1be2c89b69c2b068fc378daa952ba7f163c4a11628f55a4df523b3ef60405160405180910390a46112ac600083836115a8565b5050565b6112b982610c42565b6112f8576040517f08c379a00000000000000000000000000000000000000000000000000000000081526004016112ef90612847565b60405180910390fd5b806006600084815260200190815260200160002090816113189190612a13565b505050565b8173ffffffffffffffffffffffffffffffffffffffff168373ffffffffffffffffffffffffffffffffffffffff160361138b576040517f08c379a000000000000000000000000000000000000000000000000000000000815260040161138290612b31565b60405180910390fd5b80600560008573ffffffffffffffffffffffffffffffffffffffff1673ffffffffffffffffffffffffffffffffffffffff16815260200190815260200160002060008473ffffffffffffffffffffffffffffffffffffffff1673ffffffffffffffffffffffffffffffffffffffff16815260200190815260200160002060006101000a81548160ff0219169083151502179055508173ffffffffffffffffffffffffffffffffffffffff168373ffffffffffffffffffffffffffffffffffffffff167f17307eab39ab6107e8899845ad3d59bd9653f200f220920489ca2b5937696c318360405161147c919061196b565b60405180910390a3505050565b611494848484610e4d565b6114a0848484846115ad565b6114df576040517f08c379a00000000000000000000000000000000000000000000000000000000081526004016114d690612bc3565b60405180910390fd5b50505050565b606060405180602001604052806000815250905090565b606061150782610c42565b611546576040517f08c379a000000000000000000000000000000000000000000000000000000000815260040161153d90612c55565b60405180910390fd5b60006115506114e5565b90506000815111611570576040518060200160405280600081525061159b565b8061157a84611734565b60405160200161158b92919061246a565b6040516020818303038152906040525b915050919050565b505050565b505050565b60006115ce8473ffffffffffffffffffffffffffffffffffffffff16611894565b15611727578373ffffffffffffffffffffffffffffffffffffffff1663150b7a026115f7610cae565b8786866040518563ffffffff1660e01b81526004016116199493929190612cca565b6020604051808303816000875af192505050801561165557506040513d601f19601f820116820180604052508101906116529190612d2b565b60015b6116d7573d8060008114611685576040519150601f19603f3d011682016040523d82523d6000602084013e61168a565b606091505b5060008151036116cf576040517f08c379a00000000000000000000000000000000000000000000000000000000081526004016116c690612bc3565b60405180910390fd5b805181602001fd5b63150b7a0260e01b7bffffffffffffffffffffffffffffffffffffffffffffffffffffffff1916817bffffffffffffffffffffffffffffffffffffffffffffffffffffffff19161491505061172c565b600190505b949350505050565b60606000820361177b576040518060400160405280600181526020017f3000000000000000000000000000000000000000000000000000000000000000815250905061188f565b600082905060005b600082146117ad57808061179690612d58565b915050600a826117a69190612dcf565b9150611783565b60008167ffffffffffffffff8111156117c9576117c8611bc9565b5b6040519080825280601f01601f1916602001820160405280156117fb5781602001600182028036833780820191505090505b5090505b60008514611888576001826118149190612673565b9150600a856118239190612e00565b603061182f91906126a7565b60f81b81838151811061184557611844612e31565b5b60200101907effffffffffffffffffffffffffffffffffffffffffffffffffffffffffffff1916908160001a905350600a856118819190612dcf565b94506117ff565b8093505050505b919050565b6000808273ffffffffffffffffffffffffffffffffffffffff163b119050919050565b6000604051905090565b600080fd5b600080fd5b60007fffffffff0000000000000000000000000000000000000000000000000000000082169050919050565b611900816118cb565b811461190b57600080fd5b50565b60008135905061191d816118f7565b92915050565b600060208284031215611939576119386118c1565b5b60006119478482850161190e565b91505092915050565b60008115159050919050565b61196581611950565b82525050565b6000602082019050611980600083018461195c565b92915050565b600081519050919050565b600082825260208201905092915050565b60005b838110156119c05780820151818401526020810190506119a5565b838111156119cf576000848401525b50505050565b6000601f19601f8301169050919050565b60006119f182611986565b6119fb8185611991565b9350611a0b8185602086016119a2565b611a14816119d5565b840191505092915050565b60006020820190508181036000830152611a3981846119e6565b905092915050565b6000819050919050565b611a5481611a41565b8114611a5f57600080fd5b50565b600081359050611a7181611a4b565b92915050565b600060208284031215611a8d57611a8c6118c1565b5b6000611a9b84828501611a62565b91505092915050565b600073ffffffffffffffffffffffffffffffffffffffff82169050919050565b6000611acf82611aa4565b9050919050565b611adf81611ac4565b82525050565b6000602082019050611afa6000830184611ad6565b92915050565b611b0981611ac4565b8114611b1457600080fd5b50565b600081359050611b2681611b00565b92915050565b60008060408385031215611b4357611b426118c1565b5b6000611b5185828601611b17565b9250506020611b6285828601611a62565b9150509250929050565b600080600060608486031215611b8557611b846118c1565b5b6000611b9386828701611b17565b9350506020611ba486828701611b17565b9250506040611bb586828701611a62565b9150509250925092565b600080fd5b600080fd5b7f4e487b7100000000000000000000000000000000000000000000000000000000600052604160045260246000fd5b611c01826119d5565b810181811067ffffffffffffffff82111715611c2057611c1f611bc9565b5b80604052505050565b6000611c336118b7565b9050611c3f8282611bf8565b919050565b600067ffffffffffffffff821115611c5f57611c5e611bc9565b5b611c68826119d5565b9050602081019050919050565b82818337600083830152505050565b6000611c97611c9284611c44565b611c29565b905082815260208101848484011115611cb357611cb2611bc4565b5b611cbe848285611c75565b509392505050565b600082601f830112611cdb57611cda611bbf565b5b8135611ceb848260208601611c84565b91505092915050565b600060208284031215611d0a57611d096118c1565b5b600082013567ffffffffffffffff811115611d2857611d276118c6565b5b611d3484828501611cc6565b91505092915050565b611d4681611a41565b82525050565b6000602082019050611d616000830184611d3d565b92915050565b600060208284031215611d7d57611d7c6118c1565b5b6000611d8b84828501611b17565b91505092915050565b611d9d81611950565b8114611da857600080fd5b50565b600081359050611dba81611d94565b92915050565b60008060408385031215611dd757611dd66118c1565b5b6000611de585828601611b17565b9250506020611df685828601611dab565b9150509250929050565b600067ffffffffffffffff821115611e1b57611e1a611bc9565b5b611e24826119d5565b9050602081019050919050565b6000611e44611e3f84611e00565b611c29565b905082815260208101848484011115611e6057611e5f611bc4565b5b611e6b848285611c75565b509392505050565b600082601f830112611e8857611e87611bbf565b5b8135611e98848260208601611e31565b91505092915050565b60008060008060808587031215611ebb57611eba6118c1565b5b6000611ec987828801611b17565b9450506020611eda87828801611b17565b9350506040611eeb87828801611a62565b925050606085013567ffffffffffffffff811115611f0c57611f0b6118c6565b5b611f1887828801611e73565b91505092959194509250565b60008060408385031215611f3b57611f3a6118c1565b5b6000611f4985828601611b17565b9250506020611f5a85828601611b17565b9150509250929050565b7f4e487b7100000000000000000000000000000000000000000000000000000000600052602260045260246000fd5b60006002820490506001821680611fab57607f821691505b602082108103611fbe57611fbd611f64565b5b50919050565b7f4552433732313a20617070726f76656420717565727920666f72206e6f6e657860008201527f697374656e7420746f6b656e0000000000000000000000000000000000000000602082015250565b6000612020602c83611991565b915061202b82611fc4565b604082019050919050565b6000602082019050818103600083015261204f81612013565b9050919050565b7f4552433732313a20617070726f76616c20746f2063757272656e74206f776e6560008201527f7200000000000000000000000000000000000000000000000000000000000000602082015250565b60006120b2602183611991565b91506120bd82612056565b604082019050919050565b600060208201905081810360008301526120e1816120a5565b9050919050565b7f4552433732313a20617070726f76652063616c6c6572206973206e6f74206f7760008201527f6e6572206e6f7220617070726f76656420666f7220616c6c0000000000000000602082015250565b6000612144603883611991565b915061214f826120e8565b604082019050919050565b6000602082019050818103600083015261217381612137565b9050919050565b7f4552433732313a207472616e736665722063616c6c6572206973206e6f74206f60008201527f776e6572206e6f7220617070726f766564000000000000000000000000000000602082015250565b60006121d6603183611991565b91506121e18261217a565b604082019050919050565b60006020820190508181036000830152612205816121c9565b9050919050565b7f4d617820737570706c7920657863656564656421000000000000000000000000600082015250565b6000612242601483611991565b915061224d8261220c565b602082019050919050565b6000602082019050818103600083015261227181612235565b9050919050565b7f4552433732313a206f776e657220717565727920666f72206e6f6e657869737460008201527f656e7420746f6b656e0000000000000000000000000000000000000000000000602082015250565b60006122d4602983611991565b91506122df82612278565b604082019050919050565b60006020820190508181036000830152612303816122c7565b9050919050565b7f4552433732313a2062616c616e636520717565727920666f7220746865207a6560008201527f726f206164647265737300000000000000000000000000000000000000000000602082015250565b6000612366602a83611991565b91506123718261230a565b604082019050919050565b6000602082019050818103600083015261239581612359565b9050919050565b7f45524337323155524953746f726167653a2055524920717565727920666f722060008201527f6e6f6e6578697374656e7420746f6b656e000000000000000000000000000000602082015250565b60006123f8603183611991565b91506124038261239c565b604082019050919050565b60006020820190508181036000830152612427816123eb565b9050919050565b600081905092915050565b600061244482611986565b61244e818561242e565b935061245e8185602086016119a2565b80840191505092915050565b60006124768285612439565b91506124828284612439565b91508190509392505050565b7f4552433732313a206f70657261746f7220717565727920666f72206e6f6e657860008201527f697374656e7420746f6b656e0000000000000000000000000000000000000000602082015250565b60006124ea602c83611991565b91506124f58261248e565b604082019050919050565b60006020820190508181036000830152612519816124dd565b9050919050565b7f4552433732313a207472616e736665722066726f6d20696e636f72726563742060008201527f6f776e6572000000000000000000000000000000000000000000000000000000602082015250565b600061257c602583611991565b915061258782612520565b604082019050919050565b600060208201905081810360008301526125ab8161256f565b9050919050565b7f4552433732313a207472616e7366657220746f20746865207a65726f2061646460008201527f7265737300000000000000000000000000000000000000000000000000000000602082015250565b600061260e602483611991565b9150612619826125b2565b604082019050919050565b6000602082019050818103600083015261263d81612601565b9050919050565b7f4e487b7100000000000000000000000000000000000000000000000000000000600052601160045260246000fd5b600061267e82611a41565b915061268983611a41565b92508282101561269c5761269b612644565b5b828203905092915050565b60006126b282611a41565b91506126bd83611a41565b9250827fffffffffffffffffffffffffffffffffffffffffffffffffffffffffffffffff038211156126f2576126f1612644565b5b828201905092915050565b7f4552433732313a206d696e7420746f20746865207a65726f2061646472657373600082015250565b6000612733602083611991565b915061273e826126fd565b602082019050919050565b6000602082019050818103600083015261276281612726565b9050919050565b7f4552433732313a20746f6b656e20616c7265616479206d696e74656400000000600082015250565b600061279f601c83611991565b91506127aa82612769565b602082019050919050565b600060208201905081810360008301526127ce81612792565b9050919050565b7f45524337323155524953746f726167653a2055524920736574206f66206e6f6e60008201527f6578697374656e7420746f6b656e000000000000000000000000000000000000602082015250565b6000612831602e83611991565b915061283c826127d5565b604082019050919050565b6000602082019050818103600083015261286081612824565b9050919050565b60008190508160005260206000209050919050565b60006020601f8301049050919050565b600082821b905092915050565b6000600883026128c97fffffffffffffffffffffffffffffffffffffffffffffffffffffffffffffffff8261288c565b6128d3868361288c565b95508019841693508086168417925050509392505050565b6000819050919050565b600061291061290b61290684611a41565b6128eb565b611a41565b9050919050565b6000819050919050565b61292a836128f5565b61293e61293682612917565b848454612899565b825550505050565b600090565b612953612946565b61295e818484612921565b505050565b5b818110156129825761297760008261294b565b600181019050612964565b5050565b601f8211156129c75761299881612867565b6129a18461287c565b810160208510156129b0578190505b6129c46129bc8561287c565b830182612963565b50505b505050565b600082821c905092915050565b60006129ea600019846008026129cc565b1980831691505092915050565b6000612a0383836129d9565b9150826002028217905092915050565b612a1c82611986565b67ffffffffffffffff811115612a3557612a34611bc9565b5b612a3f8254611f93565b612a4a828285612986565b600060209050601f831160018114612a7d5760008415612a6b578287015190505b612a7585826129f7565b865550612add565b601f198416612a8b86612867565b60005b82811015612ab357848901518255600182019150602085019450602081019050612a8e565b86831015612ad05784890151612acc601f8916826129d9565b8355505b6001600288020188555050505b505050505050565b7f4552433732313a20617070726f766520746f2063616c6c657200000000000000600082015250565b6000612b1b601983611991565b9150612b2682612ae5565b602082019050919050565b60006020820190508181036000830152612b4a81612b0e565b9050919050565b7f4552433732313a207472616e7366657220746f206e6f6e20455243373231526560008201527f63656976657220696d706c656d656e7465720000000000000000000000000000602082015250565b6000612bad603283611991565b9150612bb882612b51565b604082019050919050565b60006020820190508181036000830152612bdc81612ba0565b9050919050565b7f4552433732314d657461646174613a2055524920717565727920666f72206e6f60008201527f6e6578697374656e7420746f6b656e0000000000000000000000000000000000602082015250565b6000612c3f602f83611991565b9150612c4a82612be3565b604082019050919050565b60006020820190508181036000830152612c6e81612c32565b9050919050565b600081519050919050565b600082825260208201905092915050565b6000612c9c82612c75565b612ca68185612c80565b9350612cb68185602086016119a2565b612cbf816119d5565b840191505092915050565b6000608082019050612cdf6000830187611ad6565b612cec6020830186611ad6565b612cf96040830185611d3d565b8181036060830152612d0b8184612c91565b905095945050505050565b600081519050612d25816118f7565b92915050565b600060208284031215612d4157612d406118c1565b5b6000612d4f84828501612d16565b91505092915050565b6000612d6382611a41565b91507fffffffffffffffffffffffffffffffffffffffffffffffffffffffffffffffff8203612d9557612d94612644565b5b600182019050919050565b7f4e487b7100000000000000000000000000000000000000000000000000000000600052601260045260246000fd5b6000612dda82611a41565b9150612de583611a41565b925082612df557612df4612da0565b5b828204905092915050565b6000612e0b82611a41565b9150612e1683611a41565b925082612e2657612e25612da0565b5b828206905092915050565b7f4e487b7100000000000000000000000000000000000000000000000000000000600052603260045260246000fdfea2646970667358221220577fb13ffba1cb64666c5733d37c14163c746d0350a848ae9de844c9981f1caf64736f6c634300080f0033",
  "immutableReferences": {},
  "source": "// SPDX-License-Identifier: MIT\r\npragma solidity ^0.8.0;\r\n\r\nimport \"../iMP/@openzeppelin/contracts/token/ERC721/extensions/ERC721URIStorage.sol\";\r\nimport \"../iMP/@openzeppelin/contracts/utils/Counters.sol\";\r\nimport \"../iMP/@openzeppelin/contracts/token/ERC721/ERC721.sol\";\r\n\r\n\r\ncontract Nfkitties is ERC721URIStorage {\r\n    using Counters for Counters.Counter;\r\n    Counters.Counter private _tokenIds;\r\n    Counters.Counter private supply;\r\n    address contractAddress;\r\n\r\n    uint256 public maxSupply = 25; \r\n\r\n\r\n    constructor(address marketplaceAddress) ERC721(\"NFKitties\", \"NFK\") {\r\n        contractAddress = marketplaceAddress;\r\n    }\r\n\r\n    \r\n  modifier mintCompliance() {\r\n    require(supply.current() < maxSupply, \"Max supply exceeded!\");\r\n    _;\r\n  }\r\n\r\n    function mintToken(string memory tokenURI) public mintCompliance() returns (uint) {\r\n        _tokenIds.increment();\r\n        supply.increment();\r\n        uint256 newItemId = _tokenIds.current();\r\n\r\n        _mint(msg.sender, newItemId);\r\n        _setTokenURI(newItemId, tokenURI);\r\n        setApprovalForAll(contractAddress, true);\r\n        return newItemId;\r\n    }\r\n}",
  "sourcePath": "C:\\Users\\Ahmad\\Desktop\\NF_NFTMarket\\truffle\\contracts\\Nfkitties.sol",
  "compiler": {
    "name": "solc",
    "version": "0.8.15+commit.e14f2714.Emscripten.clang"
  },
  "schemaVersion": "3.4.3",
  "updatedAt": "2022-06-29T12:16:16.529Z",
  "devdoc": {
    "kind": "dev",
    "methods": {
      "approve(address,uint256)": {
        "details": "See {IERC721-approve}."
      },
      "balanceOf(address)": {
        "details": "See {IERC721-balanceOf}."
      },
      "getApproved(uint256)": {
        "details": "See {IERC721-getApproved}."
      },
      "isApprovedForAll(address,address)": {
        "details": "See {IERC721-isApprovedForAll}."
      },
      "name()": {
        "details": "See {IERC721Metadata-name}."
      },
      "ownerOf(uint256)": {
        "details": "See {IERC721-ownerOf}."
      },
      "safeTransferFrom(address,address,uint256)": {
        "details": "See {IERC721-safeTransferFrom}."
      },
      "safeTransferFrom(address,address,uint256,bytes)": {
        "details": "See {IERC721-safeTransferFrom}."
      },
      "setApprovalForAll(address,bool)": {
        "details": "See {IERC721-setApprovalForAll}."
      },
      "supportsInterface(bytes4)": {
        "details": "See {IERC165-supportsInterface}."
      },
      "symbol()": {
        "details": "See {IERC721Metadata-symbol}."
      },
      "tokenURI(uint256)": {
        "details": "See {IERC721Metadata-tokenURI}."
      },
      "transferFrom(address,address,uint256)": {
        "details": "See {IERC721-transferFrom}."
      }
    },
    "version": 1
  },
  "userdoc": {
    "kind": "user",
    "methods": {},
    "version": 1
  }
}