{
  "contractName": "NftMarket",
  "abi": [
    {
      "inputs": [],
      "stateMutability": "nonpayable",
      "type": "constructor"
    },
    {
      "anonymous": false,
      "inputs": [
        {
          "indexed": true,
          "internalType": "uint256",
          "name": "itemId",
          "type": "uint256"
        },
        {
          "indexed": true,
          "internalType": "address",
          "name": "nftContract",
          "type": "address"
        },
        {
          "indexed": true,
          "internalType": "uint256",
          "name": "tokenId",
          "type": "uint256"
        },
        {
          "indexed": false,
          "internalType": "address",
          "name": "seller",
          "type": "address"
        },
        {
          "indexed": false,
          "internalType": "address",
          "name": "owner",
          "type": "address"
        },
        {
          "indexed": false,
          "internalType": "address",
          "name": "royalty",
          "type": "address"
        },
        {
          "indexed": false,
          "internalType": "uint256",
          "name": "price",
          "type": "uint256"
        },
        {
          "indexed": false,
          "internalType": "bool",
          "name": "sold",
          "type": "bool"
        }
      ],
      "name": "MarketItemCreated",
      "type": "event"
    },
    {
      "anonymous": false,
      "inputs": [
        {
          "indexed": true,
          "internalType": "address",
          "name": "nftContract",
          "type": "address"
        },
        {
          "indexed": true,
          "internalType": "uint256",
          "name": "tokenId",
          "type": "uint256"
        },
        {
          "indexed": false,
          "internalType": "address",
          "name": "owner",
          "type": "address"
        }
      ],
      "name": "MarketItemDelisted",
      "type": "event"
    },
    {
      "anonymous": false,
      "inputs": [
        {
          "indexed": true,
          "internalType": "uint256",
          "name": "itemId",
          "type": "uint256"
        },
        {
          "indexed": false,
          "internalType": "address",
          "name": "owner",
          "type": "address"
        }
      ],
      "name": "MarketItemSold",
      "type": "event"
    },
    {
      "anonymous": false,
      "inputs": [
        {
          "indexed": true,
          "internalType": "address",
          "name": "nftContract",
          "type": "address"
        },
        {
          "indexed": true,
          "internalType": "uint256",
          "name": "tokenId",
          "type": "uint256"
        },
        {
          "indexed": false,
          "internalType": "address",
          "name": "sender",
          "type": "address"
        },
        {
          "indexed": false,
          "internalType": "address",
          "name": "reciever",
          "type": "address"
        }
      ],
      "name": "NftTransfered",
      "type": "event"
    },
    {
      "inputs": [],
      "name": "owner",
      "outputs": [
        {
          "internalType": "address",
          "name": "",
          "type": "address"
        }
      ],
      "stateMutability": "view",
      "type": "function",
      "constant": true
    },
    {
      "inputs": [],
      "name": "royalty",
      "outputs": [
        {
          "internalType": "address",
          "name": "",
          "type": "address"
        }
      ],
      "stateMutability": "view",
      "type": "function",
      "constant": true
    },
    {
      "inputs": [
        {
          "internalType": "address",
          "name": "nftContract",
          "type": "address"
        },
        {
          "internalType": "uint256",
          "name": "tokenId",
          "type": "uint256"
        },
        {
          "internalType": "address",
          "name": "recieverAddress",
          "type": "address"
        }
      ],
      "name": "transferAnNft",
      "outputs": [],
      "stateMutability": "nonpayable",
      "type": "function"
    },
    {
      "inputs": [
        {
          "internalType": "address",
          "name": "nftContract",
          "type": "address"
        },
        {
          "internalType": "uint256",
          "name": "tokenId",
          "type": "uint256"
        },
        {
          "internalType": "uint256",
          "name": "price",
          "type": "uint256"
        }
      ],
      "name": "createMarketItem",
      "outputs": [],
      "stateMutability": "payable",
      "type": "function",
      "payable": true
    },
    {
      "inputs": [
        {
          "internalType": "address",
          "name": "nftContract",
          "type": "address"
        },
        {
          "internalType": "uint256",
          "name": "tokenId",
          "type": "uint256"
        },
        {
          "internalType": "uint256",
          "name": "itemId",
          "type": "uint256"
        }
      ],
      "name": "delistMarketItem",
      "outputs": [],
      "stateMutability": "nonpayable",
      "type": "function"
    },
    {
      "inputs": [
        {
          "internalType": "address",
          "name": "nftContract",
          "type": "address"
        },
        {
          "internalType": "uint256",
          "name": "itemId",
          "type": "uint256"
        }
      ],
      "name": "createMarketSale",
      "outputs": [],
      "stateMutability": "payable",
      "type": "function",
      "payable": true
    }
  ],
  "bytecode": "0x608060405234801561001057600080fd5b50600160008190555033600360006101000a81548173ffffffffffffffffffffffffffffffffffffffff021916908373ffffffffffffffffffffffffffffffffffffffff160217905550736bf8cf0311ff1fd3c941c88315bb339cd40da92a600460006101000a81548173ffffffffffffffffffffffffffffffffffffffff021916908373ffffffffffffffffffffffffffffffffffffffff160217905550611594806100be6000396000f3fe6080604052600436106100555760003560e01c806329ee566c1461005a57806358eb2df514610085578063678adf78146100a15780637b4365d6146100ca5780638da5cb5b146100f3578063c23b139e1461011e575b600080fd5b34801561006657600080fd5b5061006f61013a565b60405161007c9190610dfa565b60405180910390f35b61009f600480360381019061009a9190610e7c565b610160565b005b3480156100ad57600080fd5b506100c860048036038101906100c39190610ecf565b610529565b005b3480156100d657600080fd5b506100f160048036038101906100ec9190610e7c565b6105f3565b005b3480156100ff57600080fd5b506101086109d4565b6040516101159190610dfa565b60405180910390f35b61013860048036038101906101339190610f22565b6109fa565b005b600460009054906101000a900473ffffffffffffffffffffffffffffffffffffffff1681565b6002600054036101a5576040517f08c379a000000000000000000000000000000000000000000000000000000000815260040161019c90610fbf565b60405180910390fd5b6002600081905550600081116101f0576040517f08c379a00000000000000000000000000000000000000000000000000000000081526004016101e79061102b565b60405180910390fd5b6101fa6001610d95565b60006102066001610dab565b90506040518061010001604052808281526020018573ffffffffffffffffffffffffffffffffffffffff1681526020018481526020013373ffffffffffffffffffffffffffffffffffffffff168152602001600073ffffffffffffffffffffffffffffffffffffffff168152602001600460009054906101000a900473ffffffffffffffffffffffffffffffffffffffff1673ffffffffffffffffffffffffffffffffffffffff16815260200183815260200160001515815250600560008381526020019081526020016000206000820151816000015560208201518160010160006101000a81548173ffffffffffffffffffffffffffffffffffffffff021916908373ffffffffffffffffffffffffffffffffffffffff1602179055506040820151816002015560608201518160030160006101000a81548173ffffffffffffffffffffffffffffffffffffffff021916908373ffffffffffffffffffffffffffffffffffffffff16021790555060808201518160040160006101000a81548173ffffffffffffffffffffffffffffffffffffffff021916908373ffffffffffffffffffffffffffffffffffffffff16021790555060a08201518160050160006101000a81548173ffffffffffffffffffffffffffffffffffffffff021916908373ffffffffffffffffffffffffffffffffffffffff16021790555060c0820151816006015560e08201518160070160006101000a81548160ff0219169083151502179055509050508373ffffffffffffffffffffffffffffffffffffffff166323b872dd3330866040518463ffffffff1660e01b815260040161046d9392919061105a565b600060405180830381600087803b15801561048757600080fd5b505af115801561049b573d6000803e3d6000fd5b50505050828473ffffffffffffffffffffffffffffffffffffffff16827ff6a6e998cdb71a54614f951c87c07828d557c9d2d501f61d4183e344a06445c5336000600460009054906101000a900473ffffffffffffffffffffffffffffffffffffffff168860006040516105139594939291906110ac565b60405180910390a4506001600081905550505050565b60608373ffffffffffffffffffffffffffffffffffffffff1663b88d4fde338486856040518563ffffffff1660e01b815260040161056a9493929190611198565b600060405180830381600087803b15801561058457600080fd5b505af1158015610598573d6000803e3d6000fd5b50505050828473ffffffffffffffffffffffffffffffffffffffff167f26b3ae34c164a7b2281b9da3d233129447243bd054caebb336acdbdbb1bca7ad33856040516105e59291906111e4565b60405180910390a350505050565b600260005403610638576040517f08c379a000000000000000000000000000000000000000000000000000000000815260040161062f90610fbf565b60405180910390fd5b600260008190555060006005600083815260200190815260200160002060020154905060006005600084815260200190815260200160002060010160009054906101000a900473ffffffffffffffffffffffffffffffffffffffff16905060006005600085815260200190815260200160002060030160009054906101000a900473ffffffffffffffffffffffffffffffffffffffff16905060006005600086815260200190815260200160002060070160009054906101000a900460ff1690508173ffffffffffffffffffffffffffffffffffffffff163373ffffffffffffffffffffffffffffffffffffffff1614610767576040517f08c379a000000000000000000000000000000000000000000000000000000000815260040161075e9061127f565b60405180910390fd5b8273ffffffffffffffffffffffffffffffffffffffff168773ffffffffffffffffffffffffffffffffffffffff161480156107a157508386145b6107e0576040517f08c379a00000000000000000000000000000000000000000000000000000000081526004016107d790611311565b60405180910390fd5b6001151581151503610827576040517f08c379a000000000000000000000000000000000000000000000000000000000815260040161081e9061137d565b60405180910390fd5b8673ffffffffffffffffffffffffffffffffffffffff166323b872dd3084896040518463ffffffff1660e01b81526004016108649392919061105a565b600060405180830381600087803b15801561087e57600080fd5b505af1158015610892573d6000803e3d6000fd5b50505050600560008781526020019081526020016000206000808201600090556001820160006101000a81549073ffffffffffffffffffffffffffffffffffffffff021916905560028201600090556003820160006101000a81549073ffffffffffffffffffffffffffffffffffffffff02191690556004820160006101000a81549073ffffffffffffffffffffffffffffffffffffffff02191690556005820160006101000a81549073ffffffffffffffffffffffffffffffffffffffff021916905560068201600090556007820160006101000a81549060ff02191690555050858773ffffffffffffffffffffffffffffffffffffffff167f054d510bda9d4aed1f98aa0861c893dc6f4dca09992e05c44ce3dd046b1ef899846040516109bb9190610dfa565b60405180910390a3505050506001600081905550505050565b600360009054906101000a900473ffffffffffffffffffffffffffffffffffffffff1681565b600260005403610a3f576040517f08c379a0000000000000000000000000000000000000000000000000000000008152600401610a3690610fbf565b60405180910390fd5b600260008190555060006005600083815260200190815260200160002060060154905060006005600084815260200190815260200160002060020154905060006005600085815260200190815260200160002060070160009054906101000a900460ff169050823414610ae7576040517f08c379a0000000000000000000000000000000000000000000000000000000008152600401610ade9061140f565b60405180910390fd5b6001151581151503610b2e576040517f08c379a0000000000000000000000000000000000000000000000000000000008152600401610b259061147b565b60405180910390fd5b837f2073b2706c235effb1e3840575370a51749afd8181b4018f93bff955d50792cb33604051610b5e9190610dfa565b60405180910390a26000601434610b7591906114f9565b34610b80919061152a565b90506005600086815260200190815260200160002060050160009054906101000a900473ffffffffffffffffffffffffffffffffffffffff1673ffffffffffffffffffffffffffffffffffffffff166108fc601434610bdf91906114f9565b9081150290604051600060405180830381858888f19350505050158015610c0a573d6000803e3d6000fd5b506005600086815260200190815260200160002060030160009054906101000a900473ffffffffffffffffffffffffffffffffffffffff1673ffffffffffffffffffffffffffffffffffffffff166108fc829081150290604051600060405180830381858888f19350505050158015610c87573d6000803e3d6000fd5b508573ffffffffffffffffffffffffffffffffffffffff166323b872dd3033866040518463ffffffff1660e01b8152600401610cc59392919061105a565b600060405180830381600087803b158015610cdf57600080fd5b505af1158015610cf3573d6000803e3d6000fd5b50505050336005600087815260200190815260200160002060040160006101000a81548173ffffffffffffffffffffffffffffffffffffffff021916908373ffffffffffffffffffffffffffffffffffffffff160217905550610d566002610d95565b60016005600087815260200190815260200160002060070160006101000a81548160ff0219169083151502179055505050505060016000819055505050565b6001816000016000828254019250508190555050565b600081600001549050919050565b600073ffffffffffffffffffffffffffffffffffffffff82169050919050565b6000610de482610db9565b9050919050565b610df481610dd9565b82525050565b6000602082019050610e0f6000830184610deb565b92915050565b600080fd5b610e2381610dd9565b8114610e2e57600080fd5b50565b600081359050610e4081610e1a565b92915050565b6000819050919050565b610e5981610e46565b8114610e6457600080fd5b50565b600081359050610e7681610e50565b92915050565b600080600060608486031215610e9557610e94610e15565b5b6000610ea386828701610e31565b9350506020610eb486828701610e67565b9250506040610ec586828701610e67565b9150509250925092565b600080600060608486031215610ee857610ee7610e15565b5b6000610ef686828701610e31565b9350506020610f0786828701610e67565b9250506040610f1886828701610e31565b9150509250925092565b60008060408385031215610f3957610f38610e15565b5b6000610f4785828601610e31565b9250506020610f5885828601610e67565b9150509250929050565b600082825260208201905092915050565b7f5265656e7472616e637947756172643a207265656e7472616e742063616c6c00600082015250565b6000610fa9601f83610f62565b9150610fb482610f73565b602082019050919050565b60006020820190508181036000830152610fd881610f9c565b9050919050565b7f5072696365206d7573742062652067726561746572207468616e203000000000600082015250565b6000611015601c83610f62565b915061102082610fdf565b602082019050919050565b6000602082019050818103600083015261104481611008565b9050919050565b61105481610e46565b82525050565b600060608201905061106f6000830186610deb565b61107c6020830185610deb565b611089604083018461104b565b949350505050565b60008115159050919050565b6110a681611091565b82525050565b600060a0820190506110c16000830188610deb565b6110ce6020830187610deb565b6110db6040830186610deb565b6110e8606083018561104b565b6110f5608083018461109d565b9695505050505050565b600081519050919050565b600082825260208201905092915050565b60005b8381101561113957808201518184015260208101905061111e565b83811115611148576000848401525b50505050565b6000601f19601f8301169050919050565b600061116a826110ff565b611174818561110a565b935061118481856020860161111b565b61118d8161114e565b840191505092915050565b60006080820190506111ad6000830187610deb565b6111ba6020830186610deb565b6111c7604083018561104b565b81810360608301526111d9818461115f565b905095945050505050565b60006040820190506111f96000830185610deb565b6112066020830184610deb565b9392505050565b7f546869732063616e206f6e6c792062652063616c6c656420627920746865207060008201527f6572736f6e2077686f206c697374656420746865206974656d00000000000000602082015250565b6000611269603983610f62565b91506112748261120d565b604082019050919050565b600060208201905081810360008301526112988161125c565b9050919050565b7f796f7520737570706c69656420612077726f6e67206f72206e6f6e206578697360008201527f74656e7420746f6b656e20706172616d00000000000000000000000000000000602082015250565b60006112fb603083610f62565b91506113068261129f565b604082019050919050565b6000602082019050818103600083015261132a816112ee565b9050919050565b7f54686973206974656d2077617320707265766f75736c7920736f6c6400000000600082015250565b6000611367601c83610f62565b915061137282611331565b602082019050919050565b600060208201905081810360008301526113968161135a565b9050919050565b7f506c65617365207375626d6974207468652061736b696e67207072696365206960008201527f6e206f7264657220746f20636f6d706c65746520746865207075726368617365602082015250565b60006113f9604083610f62565b91506114048261139d565b604082019050919050565b60006020820190508181036000830152611428816113ec565b9050919050565b7f546869732053616c652068617320616c726564792066696e6e69736865640000600082015250565b6000611465601e83610f62565b91506114708261142f565b602082019050919050565b6000602082019050818103600083015261149481611458565b9050919050565b7f4e487b7100000000000000000000000000000000000000000000000000000000600052601260045260246000fd5b7f4e487b7100000000000000000000000000000000000000000000000000000000600052601160045260246000fd5b600061150482610e46565b915061150f83610e46565b92508261151f5761151e61149b565b5b828204905092915050565b600061153582610e46565b915061154083610e46565b925082821015611553576115526114ca565b5b82820390509291505056fea2646970667358221220bdee4af4d80a1a488e47002d27c95324d1a954202f1d0bf714ef01ca640696e064736f6c634300080f0033",
  "immutableReferences": {},
  "source": "// SPDX-License-Identifier: MIT\r\n\r\npragma solidity ^0.8.0;\r\n\r\nimport \"../iMP/@openzeppelin/contracts/token/ERC721/ERC721.sol\";\r\nimport \"../iMP/@openzeppelin/contracts/utils/Counters.sol\";\r\nimport \"../iMP/@openzeppelin/contracts/security/ReentrancyGuard.sol\";\r\n\r\ncontract NftMarket is ReentrancyGuard {\r\n    using Counters for Counters.Counter;\r\n    Counters.Counter private _itemIds;\r\n    Counters.Counter private _itemsSold;\r\n    \r\n     address public owner;\r\n     address public royalty;\r\n    \r\n     constructor() {\r\n     \r\n         owner = msg.sender;\r\n         royalty = 0x6Bf8Cf0311FF1fD3c941C88315Bb339CD40dA92A;\r\n     }\r\n     \r\n\r\n     struct MarketItem {\r\n         uint itemId;\r\n         address nftContract;\r\n         uint256 tokenId;\r\n         address payable seller;\r\n         address payable owner;\r\n         address payable royalty;\r\n         uint256 price;\r\n         bool sold;\r\n     }\r\n     \r\n     mapping(uint256 => MarketItem) private idToMarketItem;\r\n     \r\n     event MarketItemCreated (\r\n        uint indexed itemId,\r\n        address indexed nftContract,\r\n        uint256 indexed tokenId,\r\n        address seller,\r\n        address owner,\r\n        address royalty,\r\n        uint256 price,\r\n        bool sold\r\n     );\r\n\r\n     event NftTransfered(\r\n          address indexed nftContract,\r\n          uint256 indexed tokenId,\r\n          address sender,\r\n          address reciever\r\n     );\r\n     \r\n     event MarketItemSold (\r\n         uint indexed itemId,\r\n         address owner\r\n         );\r\n\r\n     event MarketItemDelisted (\r\n        address indexed nftContract,\r\n        uint256 indexed tokenId,\r\n        address owner\r\n     );     \r\n     \r\n      function transferAnNft(\r\n        address nftContract,\r\n        uint256 tokenId,\r\n        address recieverAddress\r\n       ) public virtual {\r\n         bytes memory _data;\r\n            \r\n        IERC721(nftContract).safeTransferFrom(msg.sender, address(recieverAddress), tokenId, _data);\r\n\r\n        emit NftTransfered(\r\n                nftContract,\r\n                tokenId,\r\n                msg.sender,\r\n                address(recieverAddress)\r\n            );\r\n    }\r\n    \r\n    function createMarketItem(\r\n        address nftContract,\r\n        uint256 tokenId,\r\n        uint256 price\r\n        ) public payable nonReentrant {\r\n            require(price > 0, \"Price must be greater than 0\");\r\n            \r\n            _itemIds.increment();\r\n            uint256 itemId = _itemIds.current();\r\n  \r\n            idToMarketItem[itemId] =  MarketItem(\r\n                itemId,\r\n                nftContract,\r\n                tokenId,\r\n                payable(msg.sender),\r\n                payable(address(0)),\r\n                payable(royalty),\r\n                price,\r\n                false\r\n            );\r\n            \r\n            IERC721(nftContract).transferFrom(msg.sender, address(this), tokenId);\r\n                \r\n            emit MarketItemCreated(\r\n                itemId,\r\n                nftContract,\r\n                tokenId,\r\n                msg.sender,\r\n                address(0),\r\n                address(royalty),\r\n                price,\r\n                false\r\n            );\r\n        }\r\n\r\n   function delistMarketItem(address nftContract, uint256 tokenId, uint256 itemId) public nonReentrant {\r\n            uint InnertokenId = idToMarketItem[itemId].tokenId;\r\n            address InnernftContract = idToMarketItem[itemId].nftContract;\r\n            address originalOwner =  idToMarketItem[itemId].seller;\r\n            bool sold = idToMarketItem[itemId].sold;\r\n            require(msg.sender == originalOwner, \"This can only be called by the person who listed the item\");\r\n            require(nftContract == InnernftContract && tokenId == InnertokenId, \"you supplied a wrong or non existent token param\");\r\n            require(sold != true, \"This item was prevously sold\");\r\n    \r\n            IERC721(nftContract).transferFrom(address(this), address(originalOwner), tokenId);\r\n          \r\n        delete idToMarketItem[tokenId]; //Delete from mapping\r\n                \r\n        emit MarketItemDelisted(\r\n        nftContract,\r\n        tokenId,\r\n        address(originalOwner) \r\n        ); // Emitting event\r\n\r\n    }   \r\n        \r\n    function createMarketSale(\r\n        address nftContract,\r\n        uint256 itemId\r\n        ) public payable nonReentrant {\r\n            uint price = idToMarketItem[itemId].price;\r\n            uint tokenId = idToMarketItem[itemId].tokenId;\r\n            bool sold = idToMarketItem[itemId].sold;\r\n            \r\n            require(msg.value == price, \"Please submit the asking price in order to complete the purchase\");\r\n            require(sold != true, \"This Sale has alredy finnished\");\r\n            emit MarketItemSold(\r\n                itemId,\r\n                msg.sender\r\n                );\r\n    \r\n            uint256 x = msg.value - msg.value/20;\r\n            idToMarketItem[itemId].royalty.transfer(msg.value/20); //adjust the denominator to change the amount of dividends sent to the royalty address \r\n            idToMarketItem[itemId].seller.transfer(x); //adjust the denominator to change the amount of dividends sent to the seller address \r\n            IERC721(nftContract).transferFrom(address(this), msg.sender, tokenId);\r\n            idToMarketItem[itemId].owner = payable(msg.sender);\r\n            _itemsSold.increment();\r\n            idToMarketItem[itemId].sold = true;\r\n        }\r\n\r\n\r\n    \r\n}",
  "sourcePath": "C:\\Users\\Ahmad\\Desktop\\NF_NFTMarket\\truffle\\contracts\\NftMarket.sol",
  "compiler": {
    "name": "solc",
    "version": "0.8.15+commit.e14f2714.Emscripten.clang"
  },
  "schemaVersion": "3.4.3",
  "updatedAt": "2022-06-29T12:17:24.546Z",
  "networkType": "ethereum",
  "devdoc": {
    "kind": "dev",
    "methods": {},
    "version": 1
  },
  "userdoc": {
    "kind": "user",
    "methods": {},
    "version": 1
  }
}